:020000040000fa
:080000000001040000000000f3
:020000040000fa
:10000800281b0000281b0000281b0000281b0000dc
:10001800281b0000281b0000281b0000281b0000cc
:10002800281b0000281b0000281b0000181a0000cd
:10003800281b0000281b0000281b0000281b0000ac
:10004800281b0000281b0000281b0000281b00009c
:10005800281b0000281b0000281b0000281b00008c
:10006800f6190000281b0000281b0000281b0000b0
:10007800281b0000281b0000281b0000281b00006c
:10008800281b0000281b0000281b0000720a000023
:10009800281b0000281b0000281b0000281b00004c
:1000a800281b0000281b0000281b0000281b00003c
:1000b800281b0000281b0000281b0000281b00002c
:1000c800281b0000281b0000281b0000281b00001c
:1000d800281b0000281b0000281b0000281b00000c
:1000e800281b0000281b0000281b0000281b0000fc
:0800f800281b0000281b00007a
:020000040000fa
:10010800281b0000281b0000281b0000281b0000db
:10011800281b0000281b0000281b0000281b0000cb
:10012800281b0000281b0000281b0000181a0000cc
:10013800281b0000281b0000281b0000281b0000ab
:10014800281b0000281b0000281b0000281b00009b
:10015800281b0000281b0000281b0000281b00008b
:10016800f6190000281b0000281b0000281b0000af
:10017800281b0000281b0000281b0000281b00006b
:10018800281b0000281b0000281b0000720a000022
:10019800281b0000281b0000281b0000281b00004b
:1001a800281b0000281b0000281b0000281b00003b
:1001b800281b0000281b0000281b0000281b00002b
:1001c800281b0000281b0000281b0000281b00001b
:1001d800281b0000281b0000281b0000281b00000b
:1001e800281b0000281b0000281b0000281b0000fb
:0801f800281b0000281b000079
:020000040000fa
:10020000efa220000e7f22000e01880000000000f7
:10021000000020000000e000020032000001200089
:10022000200288000c000700e07d22000100200071
:1002300011000700000020000000e0000200320072
:100240000000020000000000941602000000000000
:100250000040da000000fe004440a9000028200011
:100260000000e0000300320000002000a001880030
:100270004440a8000000060091018800800078003a
:100280000000eb0015003700e280400032a0b4000f
:100290009101ba00e280400032a0b4009102ba009d
:1002a000e280400032a0b4000002eb00472bde00e9
:1002b000f507b200602ce10004003a000059eb00a1
:1002c0008301e900fdff3e00040037006128e100e2
:1002d000010032000082eb00040007001101ba00a7
:1002e0000200e000e8ff3a00000006003159ba00c1
:1002f0008301e9000c0032002159ba008301e900b2
:10030000080032000400e00003003a00e2804000f0
:1003100032a0b400f5ff370011d9ba008301e9001b
:10032000faff3a008100e800e180400032a0b4000a
:10033000000006006022b800060220000000d00085
:100340008180d2000482d2008582d2000000a00009
:100350000202520083825a0003003100020242006e
:1003600083824a000000a1000603e900f3ff3a007f
:040370000000060083
:020000040000fa
:10037400320000004c000000660000008000000015
:1003840099000000b3000000cc000000e50000006c
:10039400fd000000150100002c01000042010000d6
:1003a400580100006e010000820100009601000067
:1003b400a9010000bb010000cc010000dc01000029
:1003c400eb010000f9010000050200001102000029
:1003d4001c020000250200002d020000340200006f
:1003e4003a0200003e020000410200004302000005
:1003f4004402000043020000410200003e020000eb
:100404003a020000340200002d0200002502000020
:100414001c0200001102000005020000f9010000a6
:10042400eb010000dc010000cc010000bb01000076
:10043400a901000096010000820100006e01000085
:1004440058010000420100002c01000015010000c9
:10045400fd000000e5000000cc000000b300000037
:100464009900000080000000660000004c000000bd
:1004740032000000320000003200000032000000b0
:1004840032000000320000003200000032000000a0
:100494003200000032000000320000003200000090
:1004a4003200000032000000320000003200000080
:1004b4003200000032000000320000003200000070
:1004c4003200000032000000320000003200000060
:1004d4003200000032000000320000003200000050
:1004e4003200000032000000320000003200000040
:1004f4003200000032000000320000003200000030
:10050400320000003200000032000000320000001f
:10051400320000003200000032000000320000000f
:1005240032000000320000003200000032000000ff
:1005340032000000320000003200000032000000ef
:1005440032000000320000003200000032000000df
:1005540032000000320000003200000032000000cf
:1005640032000000320000003200000032000000bf
:1005740032000000410000004f0000005e00000057
:100584006d0000007b00000089000000970000005f
:10059400a5000000b2000000bf000000cc00000075
:1005a400d9000000e5000000f0000000fb0000009e
:1005b40006010000100100001a01000023010000e0
:1005c4002b010000330100003b0100004101000049
:1005d400470100004c0100005101000055010000da
:1005e400580100005b0100005d0100005e01000095
:1005f4005e0100005e0100005d0100005b0100007f
:100604005801000055010000510100004c01000098
:1006140047010000410100003b01000033010000dc
:100624002b010000230100001a010000100100004a
:1006340006010000fb000000f0000000e5000000df
:10064400d9000000cc000000bf000000b200000090
:10065400a500000097000000890000007b00000056
:100664006d0000005e0000004f000000410000002b
:1006740032000000320000003200000032000000ae
:10068400320000003200000032000000320000009e
:10069400320000003200000032000000320000008e
:1006a400320000003200000032000000320000007e
:1006b400320000003200000032000000320000006e
:1006c400320000003200000032000000320000005e
:1006d400320000003200000032000000320000004e
:1006e400320000003200000032000000320000003e
:1006f400320000003200000032000000320000002e
:10070400320000003200000032000000320000001d
:10071400320000003200000032000000320000000d
:1007240032000000320000003200000032000000fd
:1007340032000000320000003200000032000000ed
:1007440032000000320000003200000032000000dd
:1007540032000000320000003200000032000000cd
:1007640032000000320000003200000032000000bd
:100774000000000000000000000000000000000075
:100784000100000001000000010000000100000061
:10079400020000000200000002000000020000004d
:1007a4000300000003000000030000000300000039
:1007b4000000000000000000000000000000000035
:1007c4000100000001000000010000000100000021
:1007d400020000000200000002000000020000000d
:1007e40003000000030000000300000003000000f9
:1007f40000000000008000000000000000800000f5
:1008040000000000008000000000000000800000e4
:1008140000000000008000000000000000800000d4
:1008240000000000008000000000000000800000c4
:1008340000000000000000000000000000000000b4
:1008440000000000000000000000000000000000a4
:100854000000000000000000000000000000000094
:100864000000000000000000000000000000000084
:020000040000fa
:100874000000fa00d51c800004f02f00848262007e
:10088400264d800004f02f0004026300848f520080
:100894000a003600254d8000f40f20000482620017
:1008a400244d8800254d8000d61c800004f02f00c4
:1008b4000402630004824200244d8800d51c800099
:1008c400f40f200084826200264d8000f40f200083
:1008d40004026300848f52000a003600254d800014
:1008e40004f02f0004826200244d8800254d80000e
:1008f400d61c8000f40f200004026300048242002e
:10090400244d880054342c00244b880034122f00ca
:10091400344b8800043a8000c44a8800260007004b
:10092400ea000700de010700ec010700449c2000f8
:10093400940278000400280004826200e00f520050
:10094400010032000b020700144e8000e44a8800c4
:10095400e54a8000e44d800004824200e44a8800b5
:10096400e54a8000f44d800004824200e44a880095
:10097400e54a8000044e800004824200e44a880074
:10098400e54a8000c44d800004824200e44a8800a5
:10099400e54a8000b44d800004824200e44a8800a5
:1009a400e54a8000a44d800004824200e44a8800a5
:1009b4000080fa00000006000a00fa001e0037005a
:1009c4008e00780040802000591007009e027800b5
:1009d400840720008482620084022000848f5200f5
:1009e40004003200c44d80000402e800c44d8800b5
:1009f400110037009e027800844a2100848f52003f
:100a040003003a000e007800160007000a003700c1
:100a14009e02780084622100848f520003003a0011
:100a24000e0078006800070003003700a44d800022
:100a34000402e800a44d880040802000ee0f070067
:100a440000027800e00f5200ddff3a009445800078
:100a5400e44d880054408000f44d88000080fa0082
:100a6400000006000400fa00100798001e0290001f
:100a7400c4029000050f780004002f009e0262005b
:100a840004002500848f520004003200b44d80001d
:100a94000402e800b44d88001a003700f4ff200077
:100aa4001e0f6200f40f20009e027800848f520013
:100ab40003003e001e0090001400070011003700e0
:100ac400f41f20009e027800848f520003003e0031
:100ad4001e009000240007000a003700f43f2000a5
:100ae4009e027800848f520003003e001e00900096
:100af4004d10070003003700b44d80000402e800e5
:100b0400b44d88000080fa00000006000400fa00da
:100b1400100798001e029000c4029000050f780090
:100b2400f4ff20001e0f62001e027800e10f520045
:100b340003003200e30f52000300320004003700c8
:100b44000000fe0006003700900c07000400370088
:100b5400b44d80000402e800b44d88000000000099
:100b64000080fa00000006000400fa001007980054
:100b74001e029000c4029000050f7800f4ff2000cc
:100b84001e0f62001e029000140290008400780080
:100b94001e007800240307001e029000a4029000a7
:100ba4001e02e80085007800040078001e03070098
:100bb4000000000000000000000000000000000031
:100bc4000080fa00000006000e00fa00600798009a
:100bd4006e029000c4029000050f780004002f00fc
:100be4009e02620004002500848f5200040032003b
:100bf400b44d80000402e800b44d88002e00370094
:100c0400f4ff20001e0f6200f48f20009e02780083
:100c1400848f520004003600f49f20009e02780066
:100c2400848f520004003600b44d80000402e800b2
:100c3400b44d88002000370004802f001e0f4200ae
:100c4400c4022a00140798006e029000c4029000a7
:100c540004802f0004824200540798000002eb0035
:100c6400440798001e02e80004007800730307009c
:100c740000027800340798001e0078006f03070014
:100c84000002780024079800000000000000000023
:100c9400000000000e82e80084007800c08a200072
:100ca4008b0f0700741b800068026200e00f520083
:100cb40001003a008760a8000080fa0000000600e6
:100cc4000000fa000080fa00000006000000fa00ac
:100cd400250480000404200004826200e00f520016
:100ce400a000320084c0a900044080000402e8008f
:100cf40004408800044080006f02620004408800c1
:100d04009a0007000440800005002000f60020003f
:100d140007002000860f5200878f5a0091003e0082
:100d2400046001000f00370018003700210037006d
:100d34002a003700330037003c00370045003700f5
:100d44004e00370057003700600037006900370055
:100d5400720037007b0037007c0037007d003700cd
:100d64007e003700f44a8000e74a8000d64a8000bb
:100d7400c54a800087017800060178008500780064
:100d84000000eb008e000700760037002496200058
:100d940014037800054b80000002eb008001eb0097
:100da4000601780085007800100020008400070008
:100db4006c003700744b8000674b8000564b8000fa
:100dc400454b800087017800060178008500780093
:100dd400200020007a00070062003700b44b800036
:100de400a74b8000964b8000854b800087017800dc
:100df40006017800850078003000200070000700ac
:100e040058003700f44b8000e74b8000d64b80003d
:100e1400c54b8000870178000601780085007800c2
:100e240040002000660007004e003700344c80006c
:100e3400274c8000164c8000054c80008701780008
:100e44000601780085007800500020005c0007004f
:100e540044003700544d8000474d8000364d8000db
:100e6400254d800087017800060178008500780010
:100e740080002000520007003a003700944d8000a3
:100e8400874d8000764d8000654d80008701780095
:100e940006017800850078009000200048000700d3
:100ea40030003700d44d8000c74d8000b64d80001f
:100eb400a54d800087017800060178008500780040
:100ec400a00020003e00070026003700144e8000da
:100ed400074e8000f64d8000e54d800087017800c4
:100ee4000601780085007800b00020003400070077
:100ef4001c003700d44c8000c74c8000b64c8000e6
:100f0400a54c8000870178000601780085007800f0
:100f1400600020002a00070012003700144d8000f2
:100f2400074d8000f64c8000e54c80008701780076
:100f3400060178008500780070002000200007007a
:100f440008003700880f070006003700920f0700db
:100f5400040037009a0f070002003700a30f0700b0
:100f6400000000000080fa00000006000a00fa00f9
:100f7400c4822a00040f78008498200014027800a8
:100f840014079800a49820001402780024079800fd
:100f9400644c800034079800744c80004407980027
:100fa400e13520000e007800100f0700444d80004a
:100fb4000402e800444d88000080fa0000000600a6
:100fc4001400fa005007980061079800720798000f
:100fd400030f9800140f98005e0290006f026200e5
:100fe40054079800de0290000405200005027200f8
:100ff400540798005e0290000402420054079800cf
:10100400de0290000460200005027200540798007c
:101014005e0290004222dd00540798005e029000b8
:10102400040f78009e02780004f02f00048262000e
:10103400040f78001e0278004322dd00040f7800bc
:101044009e0278005e039000f40f20000402630007
:1010540005027200040f78001e0a9000140798001d
:101064000e0a9000240798007e029000340798002e
:101074006e029000440798008e007800c08a200019
:10108400930e0700741b800068026200e00f520098
:1010940001003a008760a8000080fa000000060002
:1010a4000000fa0025048000040820000482620085
:1010b400e00f52000700320084e0a900144e8000c3
:1010c4000402e800144e8800144e80006451880025
:1010d4008829a8000080fa00000006000000fa0039
:1010e40014408000e00f520005003a00444c800098
:1010f40061026200e00f5200010032009bff070012
:10110400444c8000614262000482fb001440880069
:101114000080fa00000006000200fa00000f7800c8
:10112400449c20009e02780095029000050a7800f5
:101134001e027800a4029000449c2000150298002e
:101144001e027800b4029000449c200025029800fe
:10115400449c20008082eb00350298000060fe0071
:101164008829a9000002eb00540888000080fa00d6
:10117400000006000000fa000002eb00944588001d
:101184000002eb00544088000002eb005451880038
:101194000002eb00645188000002eb00c44a88009e
:1011a4000002eb00d44a88000002eb00e44a880005
:1011b4000002eb00f44a88000002eb00044b8800b4
:1011c4000002eb00244b88000002eb00344b880043
:1011d4000002eb00444b88000002eb00544b8800f3
:1011e4000002eb00644b88000002eb00744b8800a3
:1011f4000002eb00844b88000002eb00944b880053
:101204000002eb00a44b88000002eb00b44b880002
:101214000002eb00c44b88000002eb00d44b8800b2
:101224000002eb00e44b88000002eb00f44b880062
:101234000002eb00044c88000002eb00144c880010
:101244000002eb00244c88000002eb00344c8800c0
:101254000002eb00244d88000002eb00344d8800ae
:101264000002eb00444d88000002eb00544d88005e
:101274000002eb00644d88000002eb00744d88000e
:101284000002eb00844d88000002eb00944d8800be
:101294000002eb00a44d88000002eb00b44d88006e
:1012a4000002eb00c44d88000002eb00d44d88001e
:1012b4000002eb00e44d88000002eb00f44d8800ce
:1012c4000002eb00044e88000002eb00144e88007c
:1012d4000002eb00b41c880041e7a90041c7a90043
:1012e40040e7a9004087a9004067a9004047a9003a
:1012f4004027a9004007a90040c7a9000080fa00c0
:10130400000006000000fa00545180000402e800c6
:1013140054518800449c20008002eb00050a7800a8
:10132400449c20001500200015029800449c2000d5
:101334002500200025029800449c20003500200050
:101344003502980054518000044b88006451800099
:10135400144e88008f60a9008760a90004058000ee
:1013640004c0a10004d0a10004e0a000040588008a
:101374000002eb00b41c88009803a8009823a8007e
:101384009843a80098a3a80040802000210e0700dd
:10139400c08a20001f0e070004402000841c88001f
:1013a40000000000851c8000040e2000848262007e
:1013b40004082000848f5200faff3a001400200031
:1013c400941c8800a4392000a41c880014802100e7
:1013d40084198800d4872100c41988000002eb0016
:1013e4000418880004802000441888008402210026
:1013f40084188800c47f2100c4188800c47f210099
:1014040004198800c47f21004419880014002000b6
:10141400741b880024002000f41a88003400200083
:10142400741a8800040c2000241b8800040c20007b
:10143400a41a8800040c2000241a88000002eb007f
:10144400741c88000002eb00f41b88000002eb000f
:10145400841c880000000000851c8000040e20000d
:1014640004826200e00f5200fbff3a008f60a80084
:1014740054fb25008408880024f4200064088800b4
:101484000002eb003408880084c0a9008cc0a900c5
:1014940011e1a800d4fb25009408880054622200be
:1014a4007408880084e0a9008ce0a90013e1a80076
:1014b4000002eb00a44c880014e72800b44c880018
:1014c4000002eb00c44c880014042000d44c8800b3
:1014d40044062000e44c88000080fa000000060066
:1014e4003600f800809fbe00829fbe00849fbe002d
:1014f400869fbe00889fbe004400f8004200f800aa
:101504000a00fa008760a900954d8000b41c800091
:1015140005027200944d8800751c800004082000a8
:1015240004826200e00f520024003200741c800028
:1015340061026200e00f52000f003a00644d800027
:101544000402e800644d8800e13820000e007800b1
:101554002802800019028000490d07001902880042
:10156400280288002e029000a44a88001e029000df
:10157400b44a880010003700744d80000402e8006b
:10158400744d8800e13820000e00780028028000a5
:10159400190280003a0d0700190288002802880009
:1015a4000e0078002802800019028000dafe07008d
:1015b40019028800280288009603a900f51b800000
:1015c4000408200004826200e00f52000b00320085
:1015d400844d80000402e800844d8800e137200037
:1015e400408020002802800019028000070d0700b7
:1015f40019028800280288009623a900741b800021
:1016040068026200e00f520014003a00c08a200011
:101614002802800019028000f70c070019028800d4
:101624002802880000027800e00f52000b0032000c
:10163400e1362000c08a20002802800019028000c0
:10164400540d070019028800280288009643a90057
:10165400d44d80000402e800d44d8800b51c8000fd
:101664000402200004826200e00f520009003200ec
:10167400054e8000b41c800005027200044e8800f0
:10168400344d80000402e800344d880096a3a9007c
:1016940008003700451780000420200004826200ff
:1016a400e00f520002003200e922a90001003700d5
:1016b400e922a800d51c800004f02f008482620077
:1016c400264d800004f02f0004026300848f520032
:1016d4000a003600254d8000f40f200004826200c9
:1016e400244d8800254d8000d61c800004f02f0076
:1016f4000402630004824200244d8800d51c80004b
:10170400f40f200084826200264d8000f40f200034
:1017140004026300848f52000a003600254d8000c5
:1017240004f02f0004826200244d8800254d8000bf
:10173400d61c8000f40f20000402630004824200df
:10174400244d88000080fa004200f9004400f900aa
:101754004f04be004f03be004f02be004f01be0047
:101764004f00be003600f900004006000e00fa00eb
:10177400500798006107980084022000040f780045
:101784006e029000140798005e029000e00f520071
:10179400030032000082eb002407980002003700a7
:1017a4000002eb0024079800e13420000e007800ca
:1017b4000e0d0700544d80000402e800544d8800cb
:1017c4000080fa00000006000c00fa00000f780008
:1017d40012079800230798003407980045079800db
:1017e400214f9800364f98002e4890001eeab7000b
:1017f4003e4890001feab7001e027800045188009a
:101804001fcabf006033b8001e029000ae029000f1
:101814003e019000ce01900001022b00fa0a07005d
:101824000080fa00000006001000fa00600798002b
:1018340071079800045180008402d1006e02900068
:10184400848f5200790036007e0290004822de0028
:10185400644798007e029000744798006e029000de
:1018640004024200440798004e0290004822de0021
:10187400244f98004e029000344f9800140020002a
:10188400040f7800f4a1200014427800044078008a
:101894001b0b070000027800040f7800f4a120005d
:1018a4001442780004407800360b070000027800e8
:1018b4001e0f7200f5a1200095427800e4a12000db
:1018c4001442780085407800044078006f0b0700cc
:1018d400000278001e0f7200441080004f22de00c8
:1018e400044278000482fb00240798000002eb0005
:1018f4001407980023003700f4a120001442780054
:1019040004407800d10b0700000278001e0f72001b
:10191400f4a120001442780004407800f80a07007b
:1019240000027800040f7800f4a12000144278002b
:1019340004407800130b0700000278001e0f7200a9
:10194400f5a1200095427800e4a12000144278001b
:1019540085407800044078004c0b070000027800b2
:101964001e0f7200441080004f22de0004427800f3
:101974000482fb00240798001e0290000402e80081
:10198400140798002e029000e00f52000400320069
:101994009e029000840c2000848f5200d6ff3600f3
:1019a400f4a1200014427800844078002e4890006e
:1019b400360b0700000278001e0f7200f4a120000d
:1019c40014427800844078003e4890002f0b0700b2
:1019d400000278001e0f7200f4a120001442780067
:1019e400844078007e409000280b070000027800b5
:1019f4001e0f7200f4a12000144278008440780085
:101a04006e409000210b0700000278001e0f720048
:101a1400f4a1200014427800044078008b0b0700e6
:101a2400000278001e0f7200020037000082eb00f3
:101a3400040f78000080fa00000006000e00fa008f
:101a440060079800045180008402d1006e02900067
:101a5400848f52008c0036006e0290000402420013
:101a6400440798004e0290004822de00244f98005c
:101a74004e029000344f9800f4a1200014427800e4
:101a8400044078009e0a070000027800040f7800e2
:101a9400f4a120001442780004407800b90a070039
:101aa400000278001e0f7200f5a120009542780014
:101ab400e4a12000144278008540780004407800b6
:101ac400f20a0700000278001e0f72004410800022
:101ad4004f22de00044278000482fb0034079800a1
:101ae4000002eb002407980023003700f4a1200033
:101af4001442780004407800540b07000002780078
:101b04001e0f7200f4a120001442780004407800f3
:101b14007b0a070000027800040f7800f4a120007b
:101b24001442780004407800960a07000002780006
:101b34001e0f7200f5a1200095427800e4a1200058
:101b4400144278008540780004407800cf0a0700ea
:101b5400000278001e0f7200441080004f22de0045
:101b6400044278000482fb00340798002e0290009f
:101b74000402e800240798003e029000e00f52009f
:101b840004003200ae029000840c2000848f5200c6
:101b9400d6ff3600f4a12000144278008440780077
:101ba4002e489000b90a0700000278001e0f720048
:101bb400f4a1200014427800844078003e4890004c
:101bc400b20a0700000278001e0f7200f4a1200080
:101bd40014427800044078008b0a07000002780061
:101be4001e0f7200f5a1200095427800e4a12000a8
:101bf400144278000404a000854078000440780072
:101c0400a20a0700000278001e0f7200f4a120004f
:101c14001442780004407800d30a070000027800d8
:101c240024479800f4a1200014427800044078006e
:101c3400270b0700000278001e0f7200f4a1200099
:101c44001442780004407800c70a070000027800b4
:101c540034479800f4a1200014427800044078002e
:101c64003d0b0700000278001e0f7200f4a1200053
:101c74001442780004407800f40a07000002780057
:101c84001e0f7200060037000082eb00040f78007c
:101c94000042eb00244798000042eb0034479800d0
:101ca4003e4290000482fb00440798004e029000dc
:101cb4004822dd00440798002e4290000482fb0075
:101cc400ce02900004824200440798004e02900025
:101cd400040078000080fa00000006001400fa00f6
:101ce40070079800010f9800120f98000e0a9000d8
:101cf400e00f5200950032000e0a9000f00f5200df
:101d04000200360004012000040f980004518000f2
:101d1400c522de007e029000848f520089003600c6
:101d24007e0290004522dd00440798004e02900098
:101d34004822de00244f98004e029000344f980051
:101d4400f4a120001442780004407800ec09070054
:101d540000027800040f7800f4a1200014427800f7
:101d640004407800070a0700000278001e0f720082
:101d7400f5a1200095427800e4a1200014427800e7
:101d84008540780004407800400a0700000278008b
:101d94001e0f7200441080004f22de0004427800bf
:101da4000482fb00340798000002eb00240798002b
:101db40023003700f4a12000144278000440780086
:101dc400a20a0700000278001e0f7200f4a120008e
:101dd4001442780004407800c90907000002780022
:101de400040f7800f4a12000144278000440780025
:101df400e4090700000278001e0f7200f5a120001c
:101e040095427800e4a120001442780085407800cf
:101e1400044078001d0a0700000278001e0f7200bb
:101e2400441080004f22de00044278000482fb004c
:101e3400340798002e0290000402e800240798005a
:101e44003e029000e00f520004003200ae02900007
:101e5400840c2000848f5200d6ff3600f4a12000a9
:101e640014427800844078002e489000070a070046
:101e7400000278001e0f7200f4a1200014427800c2
:101e8400844078003e489000000a07000002780071
:101e94001e0f72000002eb00140798001e003700aa
:101ea4001e029000040242009e0a90000482420036
:101eb400140278004822de00444f98001e0290006d
:101ec400040242009e0a9000048242001402780038
:101ed400544f9800f4a12000144278008440780004
:101ee4005e489000e9090700000278001e0f7200a6
:101ef400f4a1200014427800844078004e489000f9
:101f0400e2090700000278001e0f72001e02900012
:101f14000402e800140798009e0290000e0a900044
:101f2400848f5200deff3900f4a1200014427800af
:101f340004407800450a0700000278001e0f720072
:101f4400020037000082eb00040f78000080fa00e2
:101f5400000006001400fa0070079800010f9800b2
:101f6400120f98000e0a9000e00f5200fd0032009c
:101f74000e0a9000f00f5200020036000401200007
:101f8400040f980004518000c522de007e029000f8
:101f9400848f5200ed0036007e0290004522dd0061
:101fa400440798004e0290004822de00244f980017
:101fb4004e029000344f9800f4a12000144278009f
:101fc400044078004e09070000027800040f7800ee
:101fd400f4a1200014427800044078006909070045
:101fe400000278001e0f7200f5a1200095427800cf
:101ff400e4a1200014427800854078000440780071
:10200400a2090700000278001e0f7200441080002d
:102014004f22de00044278000482fb00340798005b
:102024000002eb002407980023003700f4a12000ed
:102034001442780004407800040a07000002780083
:102044001e0f7200f4a120001442780004407800ae
:102054002b09070000027800040f7800f4a1200087
:102064001442780004407800460907000002780012
:102074001e0f7200f5a1200095427800e4a1200013
:102084001442780085407800044078007f090700f6
:10209400000278001e0f7200441080004f22de0000
:1020a400044278000482fb00340798002e0290005a
:1020b4000402e800240798003e029000e00f52005a
:1020c40004003200ae029000840c2000848f520081
:1020d400d6ff3600f4a12000144278008440780032
:1020e4002e48900069090700000278001e0f720054
:1020f400f4a1200014427800844078003e48900007
:1021040062090700000278001e0f7200f4a120008b
:1021140014427800044078003b090700000278006c
:102124001e0f7200f5a1200095427800e4a1200062
:10213400144278000404a00085407800044078002c
:1021440052090700000278001e0f72000002eb0023
:10215400140798003a003700f4a1200014427800d4
:10216400044078008009070000027800444f98007a
:10217400f4a120001442780004407800d409070038
:10218400000278001e0f7200f4a1200014427800af
:10219400044078007409070000027800544f980046
:1021a400f4a120001442780004407800c809070014
:1021b400000278001e0f72001e029000040242000a
:1021c4009e0a9000848242005e4a90000482fb00d2
:1021d400840a78001e029000040242009e0a9000c5
:1021e400848242001e029000040242001e0b9000f2
:1021f40004024300140278004822dd00840a7800b7
:102204001e029000040242009e0a90008482420052
:102214001e029000040242001e0b900004024300c0
:10222400140378004e4a90000482fb000402430029
:10223400840a78001e0290000402e8001407980043
:102244000e0a90008402e9001e029000848f52005e
:10225400c1ff3e00f4a1200014427800044078003d
:102264004109070000027800444f9800f4a12000bf
:1022740014427800044078009509070000027800b1
:102284001e0f7200f4a1200014427800044078006c
:102294003509070000027800544f9800f4a120008b
:1022a4001442780004407800ab090700000278006b
:1022b4001e0f72001e029000040242009e0a90004b
:1022c400848242005e4a90000482fb00840a780003
:1022d4001e029000040242009e0a90008482420082
:1022e4001e029000040242001e0b900004024300f0
:1022f400140278004822dd00840a78001e0290004f
:10230400040242009e0a9000848242001e02900051
:10231400040242001e0b90000402430014037800e0
:102324004e4a90000482fb0004024300840a7800b1
:10233400f4a1200014427800044078004309070007
:10234400000278001e0f7200060037000082eb00c6
:10235400040f78000042eb00444f98000042eb0069
:10236400544f98000080fa00000006001000fa00a4
:10237400000f78002147980022079800330798003f
:102384004407980055079800660798007707980057
:102394001e027800ae429000054a78001e027800c2
:1023a4006e039000fe039000160298002702980026
:1023b4001e0278003ebb9700cebb97003602980001
:1023c400470298001e03780004002000e500200066
:1023d40054039800650398001e037800040020004d
:1023e400e500200074039800050b98001e02780095
:1023f400e4029000540290000400be007e0a07002c
:102404001e027800c4029000340290000400be0052
:102414008a0a07001e027800a402900014029000a9
:102424000400be00740a07001e02780024529000c3
:10243400e04f5200060032001e027800840a900029
:10244400740290000400be006b0a07000500370008
:102454001e027800840a9000740290000400be00fa
:10246400760a07001e027800e402900054029000ed
:102474000400be00940a07001e027800c402900003
:10248400340290000400be008f0a07001e02780088
:10249400a4029000140290000400be008a0a0700ff
:1024a4001e027800840a9000740290000400be00aa
:1024b400850a07001e027800144078002e0390005d
:1024c400be0390004e029000de02900003002a003a
:1024d4000001eb00f15320004f0607000080fa00d2
:1024e400000006000200fa00000f78001e027800c7
:1024f400e4029000540290000400be004f0a07005a
:1025040000000000000000000000000000000000c7
:102514001e027800e4029000540290000400be0001
:10252400350a07000080fa00000006001000fa00d7
:102534005007980061079800720798000042eb006a
:10254400044f78005e029000a402900014029000f0
:102554000400be00390a07005e02900014427800ad
:10256400844078006e009000f60607000002be006a
:1025740034079800450798003e039000ce0390006e
:102584000400200015112100840f5300858f5b0087
:1025940002003a0014c0b300044f78001e427800d1
:1025a400e04f520010003a005e029000144278009e
:1025b400844078007e009000e20607000002be001e
:1025c40034079800450798003e039000ce0390001e
:1025d4000400200015112100840f5300858f5b0037
:1025e40001003a001e14a0005e029000a4029000b4
:1025f400140290000400be00ff0907000000000060
:102604000000000000000000000000005e029000d6
:10261400a4029000140290000400be00070a070000
:102624001e427800e04f520012003a005e02900011
:102634001442780084407800000f2000c10607008f
:102644000002be0034079800450798003e0290003f
:10265400140798003e039000ce039000040020006d
:1026640015112100840f5300858f5b0001003a008f
:102674001e24a0001e427800e04f520012003a00cf
:102684005e02900014427800844078000000eb0061
:10269400ac0607000002be00340798004507980006
:1026a4003e029000240798003e039000ce03900061
:1026b4000400200015112100840f5300858f5b0056
:1026c40001003a001e34a0005e029000a4029000b3
:1026d400140290000400be00c70907009e02900087
:1026e4006e029000848f5200010032001e44a0004c
:1026f400ae0290007e029000848f520002003200ed
:1027040004c2b3001e4f72001e427800e04f520014
:1027140003003200345180000402e8003451880080
:102724001e427800044078000080fa000000060091
:102734001400fa0050079800610798007207980087
:10274400030f9800140f98000042eb00044f780028
:102754005e029000a4029000140290000400be00e7
:10276400b60907005e0290001442780084407800a5
:102774006e009000730607000002be003407980044
:10278400450798003e039000ce039000040020000b
:1027940015112100840f5300858f5b0002003a005d
:1027a40014c0b300044f78001e427800e04f52007a
:1027b40010003a005e0290001442780084407800d1
:1027c4007e0090005f0607000002be0034079800f8
:1027d400450798003e039000ce03900004002000bb
:1027e40015112100840f5300858f5b0001003a000e
:1027f4001e14a0005e029000a40290001402900037
:102804000400be007c090700000000000000000076
:1028140000000000000000005e029000a40290008e
:10282400140290000400be00840907005e029000b8
:1028340014427800844078000e0890004106070096
:102844000002be0034079800450798003e0290003d
:10285400140798003e039000ce039000040020006b
:1028640015112100840f5300858f5b0002003a008c
:1028740014c0b300044f78001e427800e04f5200a9
:1028840012003a005e0290001442780084407800fe
:102894001e0890002b0607000002be0034079800b3
:1028a400450798003e029000240798003e039000dc
:1028b400ce0390000400200015112100840f530062
:1028c400858f5b0001003a001e14a0009e02900058
:1028d4006e029000848f5200010032001e44a0005a
:1028e400ae0290007e029000848f520002003200fb
:1028f40004c2b3001e4f72005e029000a402900056
:10290400140290000400be003b0907000000000010
:102914000000000000000000000000005e029000c3
:10292400a4029000140290000400be0043090700b2
:102934001e427800e04f520012003a005e029000fe
:102944001442780084407800000f2000fd05070041
:102954000002be0034079800450798003e0290002c
:10296400140798003e039000ce039000040020005a
:1029740015112100840f5300858f5b0001003a007c
:102984001e24a0001e427800e04f520012003a00bc
:102994005e02900014427800844078000000eb004e
:1029a400e80507000002be003407980045079800b8
:1029b4003e029000240798003e039000ce0390004e
:1029c4000400200015112100840f5300858f5b0043
:1029d40001003a001e34a0005e029000a4029000a0
:1029e400140290000400be00030907009e02900038
:1029f4000e0a9000848f5200010032001e44a00091
:102a0400ae0290001e0a9000848f52000200320031
:102a140004c2b3001e4f72001e427800e04f520001
:102a240003003200345180000402e800345188006d
:102a34001e427800044078000080fa00000006007e
:102a44001000fa0060079800710798000042eb003c
:102a5400044f78000042eb006447980057003700a9
:102a64006e029000a4029000140290000400be00c4
:102a7400f20807006e029000144278006e43900042
:102a840005c3b300854273008582fb00844078004f
:102a940005007800ab0507000002be00440798005b
:102aa400550798004e029000140798004e039000ba
:102ab400de0390000400200015112100840f530050
:102ac400858f5b0002003a0014c0b300044f780005
:102ad4001e427800e04f520018003a006e02900047
:102ae40014427800ee4290008582fb008582420009
:102af4007e039000850243009502780084407800ac
:102b0400050078008f0507000002be004407980006
:102b1400550798004e029000240798004e03900039
:102b2400de0390000400200015112100840f5300df
:102b3400858f5b0001003a001e14a0006e429000d5
:102b4400e04f5200150032006e4290000482fb00f8
:102b54008402e90004032000050272008402780064
:102b64001e029000848f5200010032001e24a00037
:102b74006e4290000482fb000402e9000402420059
:102b8400fe02900004824200940278002e0290001b
:102b9400848f5200010032001e34a0006e029000a7
:102ba400a4029000140290000400be0092080700e2
:102bb4006e4290000442e800644798001e42780088
:102bc400e04f520003003a006e429000e74f52007b
:102bd400a3ff36006e029000a4029000140290003d
:102be4000400be00950807001e427800e04f520022
:102bf40012003a006e02900014427800844078007b
:102c0400000f20004f0507000002be004407980093
:102c1400550798004e029000140798004e03900048
:102c2400de0390000400200015112100840f5300de
:102c3400858f5b0001003a001e04a0001e4278004c
:102c4400e04f520012003a006e02900014427800e5
:102c5400844078000000eb003a0507000002be0043
:102c640044079800550798004e02900024079800e6
:102c74004e039000de039000040020001511210093
:102c8400840f5300858f5b0001003a001e14a000de
:102c94006e029000a4029000140290000400be0092
:102ca400550807006e4290000482fb008402e9008c
:102cb4000403200005027200840278001e029000c2
:102cc400848f5200010032001e44a0006e42900026
:102cd4000482fb000402e90004024200fe029000a8
:102ce40004824200940278002e029000848f5200e5
:102cf4000200320004c2b3001e4f72001e4278006c
:102d0400e04f520003003200445180000402e80006
:102d1400445188001e427800044078000080fa0084
:102d2400000006000000fa0004012000644f88003f
:102d340001000700feff37000000fa00644f800026
:102d440005032000850f52003500320005032000e2
:102d5400850f520006003e00f00f52000e003200b4
:102d640005022000850f5200170032006f00370063
:102d740005052000850f52005e0032000506200084
:102d8400850f52006300320005042000850f5200b5
:102d94004700320065003700a00007000002eb0086
:102da400444f880004ff2f00344f8800044d28004e
:102db400244f88000002eb00544f880004022000d6
:102dc400644f88005c00370004ff2f00044f880024
:102dd4000002eb00144f88008849a8000b0037005c
:102de4005a000700054f800044062000848f5200db
:102df40006003e00444c800064026200e00f520072
:102e040002003a0004032000644f8800654f8000ec
:102e140004022000848f5200f1ff32004600370084
:102e2400843e2000444f880004a62e00344f8800be
:102e3400244f8000144f8800070037004300070028
:102e4400054f8000244f8000848f520002003a0016
:102e540004042000644f8800654f800004032000b0
:102e6400848f5200f5ff320033003700370007002b
:102e7400844f8000e00f5200050032000002eb0096
:102e8400844f88000002eb00c44f88000301070050
:102e9400454c80000420200004826200e00f5200b0
:102ea4000400320004052000644f8800010037004c
:102eb40000000000654f800004042000848f52004d
:102ec400eaff32001c00370020000700744f800026
:102ed400144f8800454c80000420200004826200c6
:102ee400e00f520004003a0004042000644f8800fc
:102ef4000100370000000000654f80000405200039
:102f0400848f5200f0ff32000b0037000f000700df
:102f14000100370000000000654f80000406200017
:102f2400848f5200f9ff32000300370004042000ac
:102f3400644f8800000000000080fa0000000600d2
:102f44000000fa000080fa00000006000000fa0009
:102f540047f60700144f8000444b8800044f80005c
:102f6400544b8800244f8000644b8800344f800009
:102f7400744b8800444f8000844b8800644f800069
:102f8400944b8800744f8000a44b88003504800063
:102f94000404200004826200e00f52001d0032008d
:102fa40086c0a900c09f20005b020700f44f800088
:102fb4000401780001032000c09c20005bfd070091
:102fc400c44f80000402e800c44f8800a44f80006e
:102fd400e10f520002003a00044f8000d44f8800f1
:102fe400c54f800034062000848f52000300360051
:102ff4000002eb00a44f8800d1ff0700c54f8000fa
:10300400f4a52e00848f52000200360004a62e0080
:10301400c44f88000080fa00000006000000fa0097
:1030240004602c0004168800f43f2e003416880037
:10303400a4002000641688002471220094168800dd
:10304400a43a2000c4168800341c2000f41688001a
:10305400c408200024178800d662a800d642a8001d
:10306400d1c2a900d1a2a900d602a900d762a900a1
:10307400441f2000240e8800f40f2000440e880012
:103084000002eb00540e88000002eb00640e88007e
:103094000002eb00740e880004ff2f00840e8800e9
:1030a40004ff2f00940e88000082eb00a40e880019
:1030b400441f2000b40e8800441f2000c40e880062
:1030c400441f2000d40e8800441f2000e40e880012
:1030d400040f2a00040e8800140620001408880037
:1030e4008460a900a404800004c0a10004d0a0004e
:1030f40004e0a000a40488008c60a80094f92d00ca
:1031040024088800440d2300e4088800d4f92d0025
:103114000409880086c0a90024bc26001415880070
:1031240034a42e00241588008482220034158800db
:1031340034ec2f00441588008413200054158800b3
:10314400f4c12f00041588008600a900e40480005f
:103154000400a0000410a0000420a000e4048800df
:103164008e00a8008e00a900a49820008002eb0025
:10317400050a7800849820008002eb00050a780094
:103184000002eb00644c88000002eb00744c8800e1
:103194000002eb00044d88000002eb00f44c8800b0
:1031a40044002000144d880016c0b30001cab300c7
:1031b40004a821006500200002682900830920007a
:1031c4000000220080f907002400200045002000b0
:1031d400849fbe0006002800c7002000045a220075
:1031e40065022000026829008309200011c0b30091
:1031f400c09c20005dfc0700e48757000003eb003f
:10320400853e200004ee22008041eb000001eb002b
:10321400e1fc2300c09f20007201070039f8070079
:103224000080fa00000006000200fa00000f780097
:103234001e027800e00f5200020034001400200047
:10324400010037000002eb00040078000080fa005f
:10325400000006000200fa00000f78001e02780049
:10326400e00f520001003d001e0fea001e0278002c
:1032740043a2de00040f78001e027800ee0f520015
:1032840002003400f4002000040f78001e027800cd
:10329400040078000080fa00000006000a00fa002a
:1032a400044f800024079800944f800004007800a5
:1032b400ddff07000002780034079800944f800077
:1032c40004007800e3ff0700000278004407980038
:1032d400a44f8000e00f520014003a004e02900008
:1032e40084024200a43b280004824200140f7800a8
:1032f400b44f8000e30f520005003600944f800065
:10330400f00f520002003c0014002000a44f88007b
:10331400b54f8000f40f2000848f5200080036005f
:1033240014002000a44f8800050037004e029000ce
:1033340084024200a43d280004824200140f780055
:103344003e029000e00f52000a0032002e0290006c
:103354009e0f5200040036002e0290001e025200fe
:10336400140798000d0037000002eb0014079800c2
:103374000a0037009e82ea002e029000848f5200d9
:10338400040036002e0290001e024200140798002a
:10339400020037000082eb00140798001e02900020
:1033a400144f88000080fa00000006000600fa00ae
:1033b40010079800210798001e029000040f78005f
:1033c400f40720001e0f62002e0290001e0f420020
:1033d400f40720001e0f62001e027800040078002b
:1033e4000080fa0000000600841f78000000fa0044
:1033f400a022a900e822a800a002a9000000000061
:103404000415800061026200e00f5200fcff3200ec
:10341400e822a9008600a90014002000844f880037
:103424000080fa004f027800004006003600f800e1
:10343400809fbe00829fbe00849fbe00869fbe0008
:103444000000fa008460a900154f8000344f80000a
:10345400848f520002003600344f8000144f8800dd
:10346400154f8000444f8000848f520002003100c9
:10347400444f8000144f8800054f8000144f800093
:10348400848f5200060036000002eb00544f88007f
:10349400044f80000402e900044f88000d00370047
:1034a400054f8000144f8000848f520006003100c5
:1034b4000002eb00544f8800044f80000402e8002f
:1034c400044f880003003700544f80000402e800d2
:1034d400544f8800554f8000740c2000848f520094
:1034e4002b003600840c2000544f8800044f8000c9
:1034f4008000eb0004007800acff070000027800b5
:1035040084024200a42b28000482420014027800a2
:10351400b40e8800044f80000104200004007800e9
:10352400a2ff07000002780084024200a42b2800b6
:103534000482420014027800c40e8800044f800004
:10354400010220000400780098ff070000027800c0
:1035540084024200a42b2800048242001402780052
:10356400d40e8800044f8000010620000400780077
:103574008eff07000002780084024200a42b28007a
:103584000482420014027800e40e88002800370008
:10359400044f80008000eb000400780083ff0700e4
:1035a4000002780084024200a41b28000482420026
:1035b40014027800b40e8800044f80000104200037
:1035c4000400780079ff07000002780084024200ba
:1035d400a41b28000482420014027800c40e880050
:1035e400044f800001022000040078006fff0700f0
:1035f4000002780084024200a41b280004824200d6
:1036040014027800d40e8800044f800001062000c4
:103614000400780065ff070000027800840242007d
:10362400a41b28000482420014027800e40e8800df
:103634000080fa004f03be004f02be004f01be00df
:103644004f00be003600f900004006000000fa00fa
:1036540000000000000000000000fe000080fa00ee
:10366400004006001200fa00100798002107980095
:1036740032079800034f9800540798006507980094
:1036840076079800070f98000002eb00040f7800fb
:103694001e0390006022b800048bbe001e0290003e
:1036a4008002eb00250298001e0290008002eb00cd
:1036b400350298001e029000ae0290004502980068
:1036c4001e029000be029000550298000e4a90001f
:1036d400ef4f52000d0036001e0290000500280036
:1036e400650298001e0290008002eb0075029800ab
:1036f4001e02900005002800050a98001e02900092
:103704008002eb00150a98001f0037000e4a900053
:103714000482fb000404b0004222dd00040f7800a0
:103724001e007800c5f807000002780084027800c3
:103734001e029000750298001e02e8000400780042
:10374400bef80700000278009e029000e402980090
:103754001e82e80004007800b8f807000002780030
:10376400840278001e029000150a98009e027800d8
:103774006382420004007800b0f807000002780079
:103784009e029000840a98001e029000de029000bf
:10379400250a98001e029000ee029000350a980057
:1037a4001e029000fe029000550a98001e0290002e
:1037b4008e0a9000650a98001e0290008002eb00b9
:1037c400750a98001e0290008002eb000512980012
:1037d4001e029000ceba9700151298000080fa00dd
:1037e400000006001000fa00100798002107980056
:1037f40032079800034f9800540798006507980013
:10380400760798000002eb00040f78001e02900077
:103814008002eb00250298001e029000de02900058
:10382400350298001e029000ee02900045029800b6
:103834001e029000fe029000550298001e029000a5
:10384400ae029000650298001e029000be02900035
:10385400750298000e4a9000e74f52000d003600a2
:103864001e02900005002800050a98001e02900020
:103874008002eb00150a98001e0290000500280043
:10388400250a98001e0290008002eb00350a980079
:103894001f0037000e4a90000482fb000405b000ac
:1038a4004222dd00040f78001e00780063f8070050
:1038b40000027800840278001e029000150a980025
:1038c4001e02e800040078005cf80700000278009b
:1038d4009e029000840a98001e82e800040078008a
:1038e40056f8070000027800840278001e02900057
:1038f400350a98009e027800638242000400780032
:103904004ef80700000278009e029000a40a980076
:103914000080fa00000006000400fa001007980076
:103924001e029000740390001e029000e4029000b6
:103934001e029000140278000601780085007800c9
:10394400040078008705070000027800040f78005f
:103954001e029000940a90001e029000040a900037
:1039640005017800840078001e00780068050700cf
:1039740000027800040f78001e029000b40a900040
:103984001e029000240a900005017800840078004b
:103994001e0078005e05070000027800040f78001e
:1039a4001e02900024029000e00f520003003a002f
:1039b4001e029000d4029000050f78001e029000b1
:1039c4009e027800150298000080fa0000000600ac
:1039d4000400fa00100798001e029000140b9000d7
:1039e4001e029000840a90001e029000240290009f
:1039f400060178008500780004007800440507007b
:103a040000027800040f78001e029000f402900077
:103a14001e02900064029000050178008400780082
:103a24001e0078003a05070000027800040f7800b1
:103a34001e029000d40290001e02900044029000e6
:103a440005017800840078001e0078004505070011
:103a540000027800040f78001e0290009e02780095
:103a6400350298000080fa00000006000400fa0005
:103a7400000f7800110798001e027800b40290002d
:103a84001e029000848f5200030031001e02780051
:103a9400b4029000150798001e027800c40290003a
:103aa4001e029000848f5200030036001e0278002c
:103ab400c4029000150798001e0278009e02900030
:103ac400050a78000080fa00000006000200fa00ef
:103ad400000f78001e027800b40290001e027800e5
:103ae400240a9000848f5200020036001400200043
:103af400010037000002eb00040078000080fa00a7
:103b0400000006000200fa00000f78001e02780090
:103b1400b40290001e027800340a9000848f520090
:103b24000200310014002000010037000002eb0005
:103b3400040078000080fa00000006000400fa0087
:103b4400100798001e029000d40a90001e029000f4
:103b5400440a90000001eb0085007800040078001e
:103b6400eb04070000027800040f78001e029000a6
:103b7400640a90009e0f5200030036001e0290005b
:103b8400e40a9000050f780004f02f009e02520012
:103b94001e029000440a9000848f520004003600f4
:103ba4001e029000440a90001e0f420002003700db
:103bb40004f02f00040f78001e02900034029000dd
:103bc4009e0f5200060036001e029000740a9000f8
:103bd4008402e8001e029000750a9800090037006c
:103be4001e029000740a9000e00f5200050032009b
:103bf4001e029000740a90008402e9001e029000e4
:103c0400750a98001e029000f40a90001e029000ab
:103c140014129000848f52000f0039001e0290008d
:103c2400f40a90001e029000141290000402420054
:103c3400848f5200060039001e0290001412900076
:103c440004024200840278001e029000750a980063
:103c540014002000010037000002eb00040078008b
:103c64000080fa00000006000400fa001007980023
:103c74001e029000d40a90001e029000440a900094
:103c84000001eb008500780004007800a004070020
:103c940000027800040f78001e029000640a90006d
:103ca4009e0f5200030036001e029000e40a9000aa
:103cb400050f78001e029000440a90009e0f5200e7
:103cc400040036001e029000440a90001e0f5200a9
:103cd400020037000002eb00040f78001e0290007f
:103ce400340290009e0f5200060031001e02900024
:103cf400041290008402e8001e029000051298004d
:103d0400090037001e02900004129000e00f5200d8
:103d1400050032001e029000041290008402e900a3
:103d24001e029000051298001e029000841290005a
:103d34001e02900014129000848f52000f0039006c
:103d44001e029000841290001e0290001412900033
:103d540004024200848f5200060039001e029000c3
:103d64001412900004024200840278001e029000a3
:103d74000512980014002000010037000002eb0037
:103d8400040078000080fa00000006000000fa0039
:103d9400a23f28000101200000012000cff7070006
:103da400a23f28000101200010012000cbf70700ea
:103db400a23f28000101200020012000c7f70700ce
:103dc400a23f28000101200030012000c3f70700b2
:103dd400a23f28000101200040012000bff7070096
:103de400a23f28000101200050012000bbf707007a
:103df400a24128000101200060012000b7f707005c
:103e0400a24128000101200070012000b3f707003f
:103e14000080fa00000006001400fa0040479800f1
:103e240031079800420798005307980064079800e8
:103e340075079800060f9800170f98003e0290002f
:103e4400f401b300340798000e0b90009e0b900011
:103e5400463add00ca32de00850272004632dd00d9
:103e64006e019000fe0190000400be0030f10700d6
:103e74000002be00048fbe000420200005002000c4
:103e84001e03be00840f5300858f5b0003003e00b9
:103e940014002000a4508800320037003480200031
:103ea400050020001e03be00840f5300858f5b00b5
:103eb4000d003e0044002000a45088001e02be00f5
:103ec4004e2bdd004222de0004027300c22ade0013
:103ed400048fbe00be029000e4ff2f000482620043
:103ee400340798001f003700f4002200050020006a
:103ef4001e03be00840f5300858f5b000d003e003f
:103f040004012000a45088001e02be004c2bdd00da
:103f14004422de0004027300c42ade00048fbe00c3
:103f2400be029000d4ff2f00048262003407980080
:103f34000c00370004042000a45088001e02be00b8
:103f44004a2bdd004622de0004027300c62ade008e
:103f5400048fbe00be029000c4ff2f0004826200e2
:103f640034079800041c2000050020001e03be0036
:103f7400840f5300858f5b0008003600a450800036
:103f84004322dd00a4508800be02900034fe2f00be
:103f94000482620034079800570037000418200098
:103fa400050020001e03be00840f5300858f5b00b4
:103fb40009003600a45080006722b900040278008a
:103fc400a4508800be02900074fe2f000482620098
:103fd400340798004800370004142000050020002e
:103fe4001e03be00840f5300858f5b00090036005a
:103ff400a45080006622b90004027800a45088000e
:10400400be029000b4fe2f000482620034079800c0
:104014003900370004102000050020001e03be00f4
:10402400840f5300858f5b0009003600a450800084
:104034006522b90004027800a4508800be029000f2
:10404400f4fe2f0004826200340798002a0037002f
:10405400040c2000050020001e03be00840f530042
:10406400858f5b0008003600a45080004222dd00ea
:10407400a4508800be02900034ff2f000482620026
:10408400340798001c0037000408200005002000b5
:104094001e03be00840f5300858f5b0009003600a9
:1040a400a45080006322b90004027800a450880060
:1040b400be02900074ff2f0004826200340798004f
:1040c4000d00370004042000050020001e03be007c
:1040d400840f5300858f5b0007003600a4508000d6
:1040e40004024200a4508800be029000b4ff2f00d6
:1040f4000482620034079800a45080004222dd004c
:10410400a45088004e429000e14f520004003a004f
:104114003e029000141188005e039000061188008e
:104124004e429000e24f520004003a003e029000da
:10413400441188005e039000361188000080fa0064
:10414400000006000c00fa0040079800214f980078
:104154000042eb00044f78002e4a9000e14f5200d9
:1041640054003a008500a9004e02900024118800f2
:104174000002eb0034079800180037003e0290005c
:104184000402e80034079800a4508000be029000a6
:10419400848f52000300360034c0b300044f78000b
:1041a4000e00370005118000040420000482620020
:1041b400e00f52000300320044c0b300044f780003
:1041c400060037000411800062026200e00f520012
:1041d40002003a0014c0b300044f78001e42780075
:1041e400e04f5200e5ff3200200037003e0290000d
:1041f4000402e80034079800a4508000be02900036
:10420400848f52000300360034c0b300044f78009a
:1042140016003700051180000404200004826200a7
:10422400e00f52000300320044c0b300044f780092
:104234000e00370025048000041020000482620070
:10424400e00f52000300320024c0b300044f780092
:10425400060037000411800061026200e00f520082
:104264000200320024c0b300044f78001e427800dc
:10427400e14f5200ddff32001e427800e24f52004f
:1042840005003a002411800005002000140798005e
:1042940025079800070037000400200015112100ad
:1042a4001407980025079800b45080000402e80021
:1042b400b45088002e4a9000e24f52004d003a005c
:1042c4008740a9004e029000541188000002eb00c0
:1042d40034079800180037003e0290000402e800fa
:1042e40034079800a4508000be029000848f5200ce
:1042f4000300360034c0b300044f78000e003700ca
:10430400351180000404200004826200e00f520092
:104314000300320044c0b300044f780006003700a5
:104324003411800062026200e00f520002003a0081
:1043340014c0b300044f78001e427800e04f5200ce
:10434400e5ff3200190037003e0290000402e80045
:1043540034079800a4508000be029000848f52005d
:104364000300360034c0b300044f78000f00370058
:10437400351180000404200004826200e00f520022
:104384000300320044c0b300044f78000700370034
:10439400350480000440200004826200e00f5200d3
:1043a4000200320024c0b300044f78001e4278009b
:1043b400e14f5200e4ff32001e427800e24f520007
:1043c40005003a00541180000500200014079800ed
:1043d400250798000700370004002000151121006c
:1043e4001407980025079800c45080000402e800d0
:1043f400c45088001e029000ae0290000400be006b
:104404000080fa00000006001400fa0040479800fb
:1044140031079800420798005307980064079800f2
:1044240075079800060f9800170f98004e0190002a
:10443400de0190006e009000fe009000bcef0700cb
:104444000002be00048fbe001e0278004422dd007c
:10445400245188006e029000fe02900052cd2d007f
:10446400230320000400be00b1ef07000002be00d9
:104474001e1f12001e971a000082eb008082eb00c0
:104484001e0f42005e974a001e03be001400200067
:1044940005002000840f5300858f5b0003003e005d
:1044a4002400200005002000048fbe00f4ff2f002c
:1044b400050020001e03be00840f5300858f5b009f
:1044c400030036002400200005002000048fbe00f5
:1044d4004e429000e04f5200030032004e429000e2
:1044e400e14f520004003a00be02900035108800eb
:1044f4001e027800241088000080fa0000000600e4
:104504000600fa00404798000002eb0014079800e8
:104514004e429000e04f5200030032004e429000a1
:10452400e14f520013003a000002eb00040f780040
:104534000b0037001e0fe800245180009e02780013
:10454400848f5200060036000410200014079800df
:10455400145180000402e80014518800050037005b
:10456400451080000400240004826200e00f520021
:10457400f0ff3a001e029000040078000080fa0068
:10458400000006000600fa00404798000002eb0015
:10459400140798004e429000e04f5200030032008e
:1045a4004e429000e14f520013003a000602a80068
:1045b4000002eb00040f78000b0037001e0fe80028
:1045c400245180009e027800848f52000600360039
:1045d4000420200014079800145180000402e8000d
:1045e4001451880004003700341080006102620016
:1045f400e00f5200f1ff3a001e0290000400780020
:104604000080fa00000006000600fa004047980007
:104614000002eb00140798004e429000e04f520055
:10462400030032004e429000e14f520013003a0062
:104634000622a8000002eb00040f78000b003700ec
:104644001e0fe800245180009e027800848f5200df
:10465400060036000440200014079800145180001e
:104664000402e8001451880004003700341080006c
:1046740062026200e00f5200f1ff3a001e02900055
:10468400040078000080fa00000006000600fa002a
:1046940040479800514798000002eb001407980027
:1046a4005e429000e04f5200030032005e429000f0
:1046b400e14f520028003a004e4290000482fb0071
:1046c400141088000002eb00040f78000c0037007f
:1046d4001e0fe800245180009e027800848f52004f
:1046e400070036000480200014079800145180004d
:1046f4000402e80014518800000000001100370093
:10470400451080000400240004826200e00f52007f
:10471400efff32000b0037001e0fe8002451800029
:104724009e027800848f5200060036000480200028
:1047340014079800145180000402e8001451880002
:104744000500370045108000040024000482620044
:10475400e00f5200f0ff3a001e02900004007800bf
:104764000080fa00000006000600fa0040479800a6
:104774000002eb00140798004e429000e04f5200f4
:10478400030032004e429000e14f52002b003a00e9
:104794000662a8000002eb00040f78000c0037004a
:1047a4001e0fe800245180009e027800848f52007e
:1047b40007003600040021001407980014518000fb
:1047c4000402e800145188000000000010003700c3
:1047d4003410800068026200e00f5200f0ff3a00db
:1047e4000b0037001e0fe800245180009e02780061
:1047f400848f52000600360004002100140798003c
:10480400145180000402e8001451880004003700a9
:104814004410800062026200e00f5200f1ff320097
:104824001e029000e00f520004003a0005108000c0
:10483400f40f200004826200140798001e02900006
:10484400040078000080fa00000006000600fa0068
:10485400404798000002eb00140798004e42900075
:10486400e04f5200030032004e429000e14f5200ec
:1048740013003a000642a8000002eb00040f78007f
:104884000b0037001e0fe800245180009e027800c0
:10489400848f52000600360004002200140798009a
:1048a400145180000402e800145188000400370009
:1048b4003410800064026200e00f5200f1ff3a00fd
:1048c4001e029000040078000080fa000000060038
:1048d4000600fa00404798000002eb00040f78003d
:1048e4000002eb00140798004e429000e04f520083
:1048f400030032004e429000e14f520012003a0091
:1049040006a2a9000682a8000b0037001e0fe800cb
:10491400245180009e027800848f520006003600e5
:104924000400240014079800145180000402e800d5
:1049340014518800040037003410800070026200b3
:10494400e00f5200f1ff3a001e02900004007800cc
:104954000080fa00000006000600fa0040479800b4
:104964000002eb00040f78000002eb00140798002b
:104974004e429000e04f5200030032004e4290003d
:10498400e14f520012003a0006a2a8000682a800d5
:104994000b0037001e0fe800245180009e027800af
:1049a400848f520006003600040028001407980083
:1049b400145180000402e8001451880004003700f8
:1049c4003410800070026200e00f5200f1ff3a00e0
:1049d4001e029000040078000080fa000000060027
:1049e4001001900090007800010051000000e900df
:1049f400f000b20000000600100190009000780062
:104a040002805000f000b200000006001170a60001
:104a14001a003700e40140009309e8009001900077
:104a24001001e800f200b2000310e10010003200af
:104a3400100178006a11b800e80140008281410049
:104a44006e8150009219780066014100b219780015
:104a5400b2197800b2197800b21978001001e80090
:104a6400f200b20002087800e60140009309e90070
:104a7400e60140009309e8001170a100000006005f
:104a84001170a600090037006e81500012187800da
:104a94006601410032187800321878003218780024
:104aa400321878001170a10008003700827f2100bd
:104ab400021878000200200002187800021878001a
:104ac4000218780002187800310037000000060050
:104ad400e40140009309e800900190001001e8000f
:104ae400f200b2000310e1000e0032001001780061
:104af4006a11b800e801400082814100b1197800d0
:104b0400b1197800b1197800b1197800b119780099
:104b14001001e800f200b20002087800e60140004b
:104b24009309e900e60140009309e800000006004b
:104b340010019000900178000310e10008003a0091
:104b4400837f2100831878000300200083187800f5
:104b54008318780083187800831878000c003700d5
:104b64006a11b8006801410000014100b2187800e0
:104b7400b2187800b2187800b2187800b218780029
:104b8400100190000201e800f200b2001200980047
:104b9400000006001130a700130037001001900038
:104ba400900178000310e1000f0032006a11b80090
:104bb4006801410000014100ee815000b209780013
:104bc400e6814100b2197800b2197800b219780070
:104bd400b21978001130a000100190000201e80021
:104be400f200b20012009800000006001130a1008b
:104bf4006e81500030097800660141003019780058
:104c04003019780030197800301978001130a0007c
:104c1400000006000018eb000018eb000018eb0081
:104c24000008eb00000006000400fa0010079800da
:104c34001e029000c4029000050f78001e02780046
:104c44006123b80004e02a00f5ff2f0006024200a9
:104c540087824a005600200007002000860f520079
:104c6400878f5a003a003e000460010005003700b7
:104c7400370037000d0037000e0037000f003700f3
:104c8400120037001e02900014029000244f880086
:104c94001e0290002402900084007800c09f20002f
:104ca40072fb07008849a9002d0037008929a90053
:104cb4002b0037008929a800290037001e02900024
:104cc40014029000744f8800250037001e029000e3
:104cd40024029000e00f52000e003200754f800055
:104ce4001e02900014029000848f520006003600c9
:104cf400754f80001e02900014029000048252003e
:104d0400744f8800160037000002eb00744f8800cf
:104d1400130037001e029000140290008482ea00ff
:104d2400744f8000848f520006003600754f800057
:104d34001e0290001402900004824200744f880006
:104d4400070037000082eb00744f8800040037002e
:104d5400b44d80000402e800b44d88000000000057
:104d64000080fa00000006000000fa00174f8000df
:104d7400064f8000b54a80000002eb0087017800ee
:104d84000601780085007800c00520008cf007003b
:104d94000080fa00000006000000fa00b54a800016
:104da4000002eb008001eb000001eb0085007800bd
:104db400d005200082f007000080fa000000060001
:104dc4000000fa00e44f8000064f8000254f800069
:104dd400860178000001eb0085007800e0052000e2
:104de40077f007000080fa00000006000000fa00d7
:104df4000080fa00000006000160010000000000cd
:104e04000000060000000000000006000000000092
:104e14000000060000000000000006000000000082
:104e24000000060000000000000006000000000072
:104e34000000060000000000000006000080ea00f8
:104e440001600100000000000000060000000000f6
:104e54000000060000000000000006000000000042
:104e64000000060000000000000006000000000032
:104e74000000060000000000000006000000000022
:104e840000000600016001000000000000000600b0
:104e94000000000000000600000000000000060002
:104ea40000000000000006000000000000000600f2
:104eb40000000000000006000000000000000600e2
:104ec40000000000000006000080ea00016001000c
:104ed40000000000000006000000000000000600c2
:104ee40000000000000006000000000000000600b2
:104ef40000000000000006000000000000000600a2
:104f04000000000000000600000000000000060091
:104f14000200e00005003b000200400008003100f0
:104f2400000020001a2aec000500370002004000af
:104f340003003900f0ff2f001a2aec0000003700ac
:104f44000101b8006218b8000100e000020032005c
:104f5400f0ff2f001a2aec00cf10de0001007000d1
:104f6400000006000200e00005003b0002004000d3
:104f740008003100000020001c2aec000500370066
:104f84000200400003003900f0ff2f001c2aec004f
:104f9400000037000101b8007018b8000100e000fb
:104fa40002003200f0ff2f001c2aec00cc10de00bf
:084fb40001007000000006007e
:020000040000fa
:104fbc00cc09000048000000000000001a0a0000a4
:104fcc0004000000000000001e0a000004000000a5
:104fdc0000000000220a0000040000000000000095
:104fec00140a00000600000000000000260a000061
:104ffc00040000000000000000080000cc010000cc
:08500c0000000000000000009c
:020000040000fa
:0200000401f009
:04000000ecbb000055
:020000040000fa
:0200000401f009
:04000400f7ff000002
:020000040000fa
:0200000401f009
:04000800ccff000029
:020000040000fa
:0200000401f009
:04000c00ffff0000f2
:020000040000fa
:0200000401f009
:04001000ffff0000ee
:020000040000fa
:0200000401f009
:04001400ffff0000ea
:020000040000fa
:0200000401f009
:04001800ffff0000e6
:00000001FF
